:100000000C9435000C945D000C945D000C945D0024
:100010000C945D000C945D000C945D000C945D00EC
:100020000C945D000C945D000C945D000C945D00DC
:100030000C945D000C945D000C945D000C945D00CC
:100040000C945D000C945D000C945D000C945D00BC
:100050000C945D000C945D000C945D000C945D00AC
:100060000C945D000C945D009A0311241FBECFEF29
:10007000D8E0DEBFCDBF11E0A0E0B1E0E8E9F1E1FA
:1000800002C005900D92A635B107D9F721E0A6E58B
:10009000B1E001C01D92A33AB207E1F710E0C5E359
:1000A000D0E004C02197FE010E94B803C433D107F9
:1000B000C9F70E9420030C94CA080C940000809198
:1000C0009D0190919E010E94330590ED980F9A300A
:1000D00070F09FE9980F963010F4875508959FEBC4
:1000E000980F963010F4875308950E947503892F56
:1000F0000895CF93DF9380919D0190919E010E947E
:1001000033058032C1F397EF980F9230A0F38D3012
:1001100091F38A3309F4A3C0B4F48C3249F134F476
:10012000823209F097C01092560164C080330CF4FB
:1001300091C0082E000C990BC097909357018093A3
:100140005601CAE030C08D3581F034F48B3509F0AA
:1001500081C086E090E088C08B3709F47DC08D3780
:1001600009F078C084E090E07FC087E090E07CC038
:1001700088E090E079C040915601509157014A398A
:1001800089E158070CF066C0493999E1590709F12E
:10019000C49FC001C59F900D1124820F911D9093A3
:1001A00057018093560180919D0190919E010E947C
:1001B000330520ED280F2A30F0F260919D017091F7
:1001C0009E01082E000C990B0E94FA0581E090E038
:1001D0004BC02530E8F23EC08C35B1F0E0915601BD
:1001E000E032C0F581E08E0F80935601F0E0EA5ACC
:1001F000FE4FC18380919D0190919E010E94330525
:10020000C82F823249F72EC080919D0190919E01A6
:100210000E9433058E36E1F02CF48232B9F08C3531
:10022000E9F218C0843781F0883721F0823791F4E1
:10023000CDE0D4CF0E945F0090E18902E00111245B
:100240000E945F00C82BCACFC9E0C8CFC2E2C6CFA8
:10025000CAE0C4CF0E94750383E090E005C085E04A
:1002600090E002C082E090E0DF91CF910895DF92AC
:10027000EF92FF920F931F93CF93DF930E94790029
:100280008C0182309105F9F080F40197C1F584E08A
:1002900090E00E94BE03EC0119830883809156010F
:1002A000909157019B838A832CC083309105F1F094
:1002B000069729F5DF91CF911F910F91FF90EF9055
:1002C000DF900C948A01D0905601ED2CF12CC701DF
:1002D00003960E94BE03EC0119830883DA82A7010A
:1002E00067E571E003960E94DF040BC0DF91CF91B8
:1002F0001F910F91FF90EF90DF900C94AE010E9440
:100300007503CE01DF91CF911F910F91FF90EF9078
:10031000DF900895CF93DF9386E090E00E94BE03C4
:10032000EC0186E090E0998388830E9437019B83EB
:100330008A830E9479008730910539F0089741F44B
:100340000E948A019D838C8305C01D821C8202C08D
:100350000E947503CE01DF91CF910895CF93DF9373
:1003600088E090E00E94BE03EC0183E090E0998376
:1003700088830E9437019B838A830E9479000597B6
:1003800099F40E9437019D838C830E947900843008
:10039000910539F0089741F40E94AE019F838E8346
:1003A00005C01F821E8202C00E947503CE01DF912C
:1003B000CF910895CF93DF938A3079F460919F01B4
:1003C0007091A0018CE590E00E94710560919F0101
:1003D0007091A0018EE690E04AC08D3079F4609172
:1003E0009F017091A0018CE590E00E9471056091E1
:1003F0009F017091A00182E790E039C0893079F4C3
:1004000060919F017091A0018CE590E00E947105C0
:1004100060919F017091A00184E790E028C0C82FEF
:10042000082E000CDD0B90EE980F9F3578F0DF93CF
:100430008F9386E191E09F938F930E94AD050F907B
:100440000F900F900F90DF91CF910895823211F0AD
:100450008C3541F460919F017091A0018CE590E092
:100460000E94710560919F017091A001CE01DF9102
:10047000CF910C947105EF92FF920F931F93CF933E
:10048000DF93EC01888199818230910509F460C085
:1004900090F4019709F07EC08B818F938A818F93AE
:1004A0008EE191E09F938F930E94AD050F900F9086
:1004B0000F900F9077C083309105E1F0069709F017
:1004C00069C08BE590E00E94C30501E211E08A81DA
:1004D0009B810E943B020C80DD81C02D209739F06A
:1004E0001F930F930E94AD050F900F90F0CF8DE5F5
:1004F00090E026C08BE790E00E94C30584E2E82EDE
:1005000081E0F82E01E211E08A819B810E943B028A
:10051000FF92EF920E94AD058C819D810E943B026B
:100520000E80DF81C02D0F900F90209739F01F9320
:100530000F930E94AD050F900F90E6CF8DE790E0EE
:10054000DF91CF911F910F91FF90EF900C94C30515
:1005500060919F017091A00182E290E00E9471057C
:1005600010E08A81181740F4FE01E10FF11D83812C
:100570000E94DA011F5FF5CF60919F017091A00189
:1005800082E290E0DF91CF911F910F91FF90EF9069
:100590000C94710587E291E09F938F930E94AD05C3
:1005A0000F900F90DF91CF911F910F91FF90EF90DF
:1005B0000895DF92EF92FF920F931F93CF93DF93F3
:1005C000FC0180819181039761F5A281B3818D91B6
:1005D0009C911197019739F512968D919C911397E3
:1005E0008933954011F5A481B5818D919C91119726
:1005F0000297E9F4D4818D010D5F1F4FE12CF12C9E
:10060000CE2DED1658F4F801D1908F01C7010E944C
:100610008B08FFEFEF1AFF0AD81691F384E08C0FD6
:1006200007C080E005C081E003C082E001C083E034
:10063000DF91CF911F910F91FF90EF90DF90089580
:10064000CF93DF9381E391E09F938F930E94AD0559
:100650000E943701EC010E943B02CE010E94D902A8
:100660001F928F9385E391E09F938F930E94AD0536
:100670000F900F900F900F900F900F9080E090E0F0
:10068000DF91CF910895CF93C82F8A3019F48DE070
:100690000E9443038091C00085FD02C0A895FACF57
:1006A000C093C6008C2FCC0F990BCF9108958091E9
:1006B000C00087FD02C0A895FACF2091C600422F46
:1006C00050E090917801E92FF0E0E758FE4F208349
:1006D0009F5F9F719093780190917701903218F409
:1006E0009F5F90937701CA010895C091780180912E
:1006F0007701C81BCF718AE391E00E94CA058091FF
:100700007701882379F0EC2FF0E0E758FE4F8081E5
:100710000E94DA01CF5FCF71809177018150809381
:100720007701EDCF8AE090E00E94C30581E090E080
:100730000E94CA08E1ECF0E080818861808386E055
:100740008093C2001092C50087E68093C40067E5DD
:1007500073E083E493E00E94E80498E088E10FB638
:10076000F894A895809360000FBE90936000089560
:10077000EE0FFF1F0590F491E02D09940F931F9346
:10078000CF93DF938230910510F482E090E0E09106
:100790009B01F0919C0120E030E0A0E0B0E03097B8
:1007A00019F1408151810281138148175907C8F01E
:1007B0008417950769F4109731F012960C931297ED
:1007C00013961C9327C000939B0110939C0122C099
:1007D0002115310519F04217530718F49A01BD018C
:1007E000EF01DF01F801DBCF21153105F9F0281BFE
:1007F000390B2430310580F48A819B8161157105A4
:1008000021F0FB019383828304C090939C01809329
:100810009B01FE01329644C0FE01E20FF31F81935B
:10082000919322503109398328833AC0209199014C
:1008300030919A01232B41F4209102013091030160
:1008400030939A0120939901209100013091010188
:100850002115310541F42DB73EB740910401509167
:100860000501241B350BE0919901F0919A01E217E3
:10087000F307A0F42E1B3F0B2817390778F0AC01C3
:100880004E5F5F4F2417350748F04E0F5F1F5093A0
:100890009A01409399018193919302C0E0E0F0E0C6
:1008A000CF01DF91CF911F910F910895CF93DF93E7
:1008B000009709F481C0FC01329713821282A09143
:1008C0009B01B0919C01109781F420813181820FAE
:1008D000931F2091990130919A012817390751F5FA
:1008E000F0939A01E093990167C0ED0120E030E0B8
:1008F000CE17DF0740F44A815B819E014115510507
:10090000F1F0EA01F5CFD383C28340815181840F96
:10091000951FC817D90759F488819981840F951FAD
:100920000296918380838A819B81938382832115A0
:10093000310529F4F0939C01E0939B013DC0E9014E
:10094000FB83EA8349915991C40FD51FEC17FD072A
:1009500061F480819181840F951F0296E90199834A
:100960008883828193819B838A83E0E0F0E0129602
:100970008D919C911397009719F0FD01DC01F7CF41
:100980008D919C9111979D012E5F3F4F820F931F78
:100990002091990130919A012817390769F430970D
:1009A00029F410929C0110929B0102C013821282C2
:1009B000B0939A01A0939901DF91CF910895FB0123
:1009C000DC0102C001900D9241505040D8F70895CB
:1009D0000F931F93CF93DF93009731F46115710547
:1009E00019F480E090E03AC08B01EC016EE070E019
:1009F00081E090E00E94F407FC01892B91F380E8EC
:100A000083830115110571F01387028781E88383C1
:100A100080919D0190919E01892B21F4F0939E017C
:100A2000E0939D012097C9F0D187C08783818260C0
:100A3000838380919F019091A001892B71F4F093A1
:100A4000A001E0939F018091A1019091A201892BC7
:100A500021F4F093A201E093A101CF01DF91CF91A6
:100A60001F910F910895CF93DF93EC012B8120FF0D
:100A700033C026FF0AC02F7B2B838E819F81019676
:100A80009F838E838A8190E029C022FF0FC0E88176
:100A9000F9818081082E000C990B009719F42062CF
:100AA0002B831AC03196F983E8830EC0EA85FB8553
:100AB000099597FF09C02B81019611F080E201C0D2
:100AC00080E1822B8B8308C02E813F812F5F3F4FB7
:100AD0003F832E83992702C08FEF9FEFDF91CF9145
:100AE00008950F931F93CF93DF93FB01238121FD83
:100AF00003C08FEF9FEF2CC022FF16C046815781A5
:100B0000248135814217530744F4A081B1819D01AE
:100B10002F5F3F4F318320838C93268137812F5F56
:100B20003F4F3783268314C08B01EC01FB01008407
:100B3000F185E02D0995892BE1F6D80116968D9166
:100B40009C911797019617969C938E931697CE01BA
:100B5000DF91CF911F910F910895A0E0B0E0E3EBFA
:100B6000F5E00C94A308AE014B5F5F4FFA01619171
:100B70007191AF0180919F019091A0010E94130695
:100B8000E2E00C94BF0860919F017091A0010E9467
:100B9000710508950F931F93CF93DF93E0919F0109
:100BA000F091A001238121FF1BC08C01D0E0C0E0A7
:100BB000F80181918F0160919F017091A001DB018B
:100BC0001896ED91FC911997882331F00995892B9E
:100BD00079F3DFEFCFEFECCF8AE00995892B19F09D
:100BE0008FEF9FEF02C08D2F9C2FDF91CF911F9130
:100BF0000F910895FB01238120FF12C026FD10C034
:100C00008F3F3FEF930761F082832F7D2064238322
:100C1000268137812150310937832683992708950A
:100C20008FEF9FEF0895ABE0B0E0E9E1F6E00C94C0
:100C300093086C017B018A01FC0117821682838173
:100C400081FFCCC1CE0101963C01F6019381F701F1
:100C500093FD859193FF81917F01882309F4BAC1A7
:100C6000853239F493FD859193FF81917F0185321F
:100C700029F4B60190E00E947105E7CF912C212C58
:100C8000312CFFE1F315D8F08B3279F038F4803253
:100C900079F08332A1F4232D20611DC08D3261F0E3
:100CA000803369F4232D216016C0832D8260382E95
:100CB000E32DE4603E2E2AC0F32DF8601DC037FC02
:100CC0002DC020ED280F2A3040F08E32B9F436FCCA
:100CD00081C1232D2064322E19C036FE06C08AE061
:100CE000989E200D1124922E11C0EAE02E9E200D18
:100CF0001124222EF32DF0623F2E08C08C3621F4F1
:100D0000832D8068382E02C0883641F4F70193FDA8
:100D1000859193FF81917F018111B3CF982F9F7DA2
:100D20009554933028F40C5F1F4F9FE399830DC0B7
:100D3000833631F0833771F0833509F059C021C013
:100D4000F801808189830E5F1F4F88248394912C42
:100D5000530113C02801F2E04F0E511CF801A0808E
:100D6000B18036FE03C0692D70E002C06FEF7FEFE7
:100D7000C5010E9422084C018201F32DFF773F2E0E
:100D800016C0280122E0420E511CF801A080B1805B
:100D900036FE03C0692D70E002C06FEF7FEFC50122
:100DA0000E9410084C01F32DF0683F2E820133FCA5
:100DB0001BC0822D90E088169906B0F4B60180E23F
:100DC00090E00E9471052A94F4CFF50137FC8591DB
:100DD00037FE81915F01B60190E00E9471052110FC
:100DE0002A9421E0821A91088114910471F7E8C0D5
:100DF000843611F0893641F5F80137FE07C060816D
:100E00007181828193810C5F1F4F08C06081718165
:100E1000072E000C880B990B0E5F1F4FF32DFF76EA
:100E20003F2E97FF09C090958095709561957F4FF3
:100E30008F4F9F4FF0683F2E2AE030E0A3010E94C1
:100E40002D08882E861845C0853731F4232D2F7E36
:100E5000B22E2AE030E025C0932D997FB92E8F362F
:100E6000C1F018F4883579F0B5C0803719F08837AB
:100E700021F0B0C0E92FE061BE2EB4FE0DC0FB2D05
:100E8000F460BF2E09C034FE0AC0292F2660B22E9E
:100E900006C028E030E005C020E130E002C020E1DB
:100EA00032E0F801B7FE07C06081718182819381D1
:100EB0000C5F1F4F06C06081718180E090E00E5F83
:100EC0001F4FA3010E942D08882E8618FB2DFF7747
:100ED0003F2E36FE0DC0232D2E7FA22E891458F4EE
:100EE00034FE0BC032FC09C0832D8E7EA82E05C0B7
:100EF000B82CA32C03C0B82C01C0B92CA4FE0FC081
:100F0000FE01E80DF11D8081803321F49A2D997E38
:100F1000A92E09C0A2FE06C0B394B39404C08A2DC2
:100F2000867809F0B394A3FC11C0A0FE06C0B214E9
:100F300088F4280C922C9B180EC0B21460F4B601F1
:100F400080E290E00E947105B394F7CFB21418F4D8
:100F50002B1802C0982C212CA4FE10C0B60180E3EF
:100F600090E00E947105A2FE17C0A1FC03C088E7B3
:100F700090E002C088E590E0B6010CC08A2D86782A
:100F800059F0A1FE02C08BE201C080E2A7FC8DE215
:100F9000B60190E00E947105891438F4B60180E32F
:100FA00090E00E9471059A94F7CF8A94F301E80DBE
:100FB000F11D8081B60190E00E9471058110F5CF8E
:100FC000222009F442CEB60180E290E00E94710531
:100FD0002A94F6CFF6018681978102C08FEF9FEFAA
:100FE0002B96E2E10C94AF080F931F93CF93DF93FE
:100FF000869F8001879F100D969F100D1124C801B8
:101000000E94BE03EC01009729F0A80160E070E0A7
:101010000E941B08CE01DF91CF911F910F9108957F
:10102000FC010590615070400110D8F780959095B3
:101030008E0F9F1F0895DC0101C06D9341505040F9
:10104000E0F70895FC016150704001900110D8F75D
:10105000809590958E0F9F1F0895FA01AA2728303A
:1010600051F1203181F1E8946F936E7F6E5F7F4F75
:101070008F4F9F4FAF4FB1E03ED0B4E03CD0670FF1
:10108000781F891F9A1FA11D680F791F8A1F911D44
:10109000A11D6A0F711D811D911DA11D20D009F494
:1010A00068943F912AE0269F11243019305D3193D6
:1010B000DEF6CF010895462F4770405D4193B3E0BF
:1010C0000FD0C9F7F6CF462F4F70405D4A3318F066
:1010D000495D31FD4052419302D0A9F7EACFB4E017
:1010E000A6959795879577956795BA95C9F70097CF
:1010F0006105710508959B01AC010A2E0694579570
:10110000479537952795BA95C9F7620F731F841FC6
:10111000951FA01D0895F999FECF92BD81BDF89A43
:10112000992780B508952F923F924F925F926F92C8
:101130007F928F929F92AF92BF92CF92DF92EF9267
:10114000FF920F931F93CF93DF93CDB7DEB7CA1BE8
:10115000DB0B0FB6F894DEBF0FBECDBF09942A8813
:10116000398848885F846E847D848C849B84AA84BB
:10117000B984C884DF80EE80FD800C811B81AA8148
:10118000B981CE0FD11D0FB6F894DEBF0FBECDBF13
:10119000ED010895F894FFCFFF08A30120005061EE
:1011A000727365206661696C0054657374005C78C5
:1011B00025322E3278002575002C20003A20007B45
:1011C000554E4B4E4F574E7D000A3E20000A257566
:1011D0000A005061727365206572726F722C20670D
:0E11E0006F742074686973206661723A0000B3
:00000001FF
